{
  "contractName": "Auction",
  "abi": [
    {
      "inputs": [],
      "stateMutability": "nonpayable",
      "type": "constructor"
    },
    {
      "inputs": [
        {
          "internalType": "address",
          "name": "",
          "type": "address"
        }
      ],
      "name": "ParticipentBalances",
      "outputs": [
        {
          "internalType": "uint256",
          "name": "",
          "type": "uint256"
        }
      ],
      "stateMutability": "view",
      "type": "function",
      "constant": true
    },
    {
      "inputs": [],
      "name": "Winner",
      "outputs": [
        {
          "internalType": "address",
          "name": "",
          "type": "address"
        }
      ],
      "stateMutability": "view",
      "type": "function",
      "constant": true
    },
    {
      "inputs": [],
      "name": "WinnerBid",
      "outputs": [
        {
          "internalType": "uint256",
          "name": "",
          "type": "uint256"
        }
      ],
      "stateMutability": "view",
      "type": "function",
      "constant": true
    },
    {
      "stateMutability": "payable",
      "type": "receive",
      "payable": true
    },
    {
      "inputs": [],
      "name": "bid",
      "outputs": [],
      "stateMutability": "payable",
      "type": "function",
      "payable": true
    },
    {
      "inputs": [],
      "name": "withdraw",
      "outputs": [],
      "stateMutability": "nonpayable",
      "type": "function"
    },
    {
      "inputs": [
        {
          "internalType": "address",
          "name": "_addr",
          "type": "address"
        }
      ],
      "name": "canWithdraw",
      "outputs": [
        {
          "internalType": "bool",
          "name": "",
          "type": "bool"
        }
      ],
      "stateMutability": "view",
      "type": "function",
      "constant": true
    },
    {
      "inputs": [],
      "name": "getContractBalance",
      "outputs": [
        {
          "internalType": "uint256",
          "name": "",
          "type": "uint256"
        }
      ],
      "stateMutability": "view",
      "type": "function",
      "constant": true
    },
    {
      "inputs": [
        {
          "internalType": "address",
          "name": "_bidder",
          "type": "address"
        }
      ],
      "name": "getAccountBalance",
      "outputs": [
        {
          "internalType": "uint256",
          "name": "",
          "type": "uint256"
        }
      ],
      "stateMutability": "view",
      "type": "function",
      "constant": true
    },
    {
      "inputs": [],
      "name": "isTheHighestBidder",
      "outputs": [
        {
          "internalType": "bool",
          "name": "",
          "type": "bool"
        }
      ],
      "stateMutability": "view",
      "type": "function",
      "constant": true
    }
  ],
  "bytecode": "0x608060405234801561001057600080fd5b50336000806101000a81548173ffffffffffffffffffffffffffffffffffffffff021916908373ffffffffffffffffffffffffffffffffffffffff160217905550600060018190555061082b806100686000396000f3fe60806040526004361061008a5760003560e01c80636f9fb98a116100595780636f9fb98a146101315780638539ab6a1461015c57806393423e9c14610187578063b2b98ed2146101c4578063eb0ae279146101ef57610091565b806319262d30146100965780631998aeef146100d3578063279080a9146100dd5780633ccfd60b1461011a57610091565b3661009157005b600080fd5b3480156100a257600080fd5b506100bd60048036038101906100b8919061059a565b61021a565b6040516100ca9190610674565b60405180910390f35b6100db610276565b005b3480156100e957600080fd5b5061010460048036038101906100ff919061059a565b61036a565b60405161011191906106ef565b60405180910390f35b34801561012657600080fd5b5061012f610382565b005b34801561013d57600080fd5b506101466104ca565b60405161015391906106ef565b60405180910390f35b34801561016857600080fd5b506101716104d2565b60405161017e91906106ef565b60405180910390f35b34801561019357600080fd5b506101ae60048036038101906101a9919061059a565b6104d8565b6040516101bb91906106ef565b60405180910390f35b3480156101d057600080fd5b506101d96104f9565b6040516101e69190610659565b60405180910390f35b3480156101fb57600080fd5b5061020461051d565b6040516102119190610674565b60405180910390f35b600080600260008473ffffffffffffffffffffffffffffffffffffffff1673ffffffffffffffffffffffffffffffffffffffff16815260200190815260200160002054111561026c5760019050610271565b600090505b919050565b60015434116102ba576040517f08c379a00000000000000000000000000000000000000000000000000000000081526004016102b19061068f565b60405180910390fd5b600154600260008060009054906101000a900473ffffffffffffffffffffffffffffffffffffffff1673ffffffffffffffffffffffffffffffffffffffff1673ffffffffffffffffffffffffffffffffffffffff16815260200190815260200160002081905550336000806101000a81548173ffffffffffffffffffffffffffffffffffffffff021916908373ffffffffffffffffffffffffffffffffffffffff16021790555034600181905550565b60026020528060005260406000206000915090505481565b60003390506103908161021a565b6103cf576040517f08c379a00000000000000000000000000000000000000000000000000000000081526004016103c6906106af565b60405180910390fd5b8073ffffffffffffffffffffffffffffffffffffffff166108fc600260008473ffffffffffffffffffffffffffffffffffffffff1673ffffffffffffffffffffffffffffffffffffffff168152602001908152602001600020549081150290604051600060405180830381858888f19350505050610482576040517f08c379a0000000000000000000000000000000000000000000000000000000008152600401610479906106cf565b60405180910390fd5b6000600260008373ffffffffffffffffffffffffffffffffffffffff1673ffffffffffffffffffffffffffffffffffffffff1681526020019081526020016000208190555050565b600047905090565b60015481565b60008173ffffffffffffffffffffffffffffffffffffffff16319050919050565b60008054906101000a900473ffffffffffffffffffffffffffffffffffffffff1681565b60008060009054906101000a900473ffffffffffffffffffffffffffffffffffffffff1673ffffffffffffffffffffffffffffffffffffffff163373ffffffffffffffffffffffffffffffffffffffff16141561057d5760019050610582565b600090505b90565b600081359050610594816107de565b92915050565b6000602082840312156105ac57600080fd5b60006105ba84828501610585565b91505092915050565b6105cc8161071b565b82525050565b6105db8161072d565b82525050565b60006105ee601e8361070a565b91506105f982610763565b602082019050919050565b600061061160138361070a565b915061061c8261078c565b602082019050919050565b6000610634600e8361070a565b915061063f826107b5565b602082019050919050565b61065381610759565b82525050565b600060208201905061066e60008301846105c3565b92915050565b600060208201905061068960008301846105d2565b92915050565b600060208201905081810360008301526106a8816105e1565b9050919050565b600060208201905081810360008301526106c881610604565b9050919050565b600060208201905081810360008301526106e881610627565b9050919050565b6000602082019050610704600083018461064a565b92915050565b600082825260208201905092915050565b600061072682610739565b9050919050565b60008115159050919050565b600073ffffffffffffffffffffffffffffffffffffffff82169050919050565b6000819050919050565b7f546865726520697320616c7265616479206120686967686572206269642e0000600082015250565b7f596f752063616e27742077697468647261772e00000000000000000000000000600082015250565b7f436f756c64206e6f742073656e74000000000000000000000000000000000000600082015250565b6107e78161071b565b81146107f257600080fd5b5056fea264697066735822122075e0d7dd9105bee6279394b65265d8f0b5a14f6147caa6394f7d3caa721199f964736f6c63430008030033",
  "immutableReferences": {},
  "source": "// SPDX-License-Identifier: GPL-3.0\n\npragma solidity >=0.7.0 <0.9.0;\n\ncontract Auction{\n    address public Winner; // The highest bidder's address\n    uint public WinnerBid; // The amount of the highest bid\n\n    mapping(address => uint) public ParticipentBalances; // mapping for the amount to return\n\n    constructor() {\n        Winner=msg.sender;\n        WinnerBid=0;\n    }\n    \n    /// Bid on the auction with the value sent\n    /// together with this transaction.\n    /// The value will only be refunded if the\n    /// auction is not won.\n\n    function bid() public payable {\n    // 1. Check if the bid is greater than the current highest bid\n    // 2. Update status variable and the amount to return\n     \n        require(msg.value > WinnerBid,\"There is already a higher bid.\");\n        ParticipentBalances[Winner]=WinnerBid;\n        Winner=msg.sender;\n        WinnerBid=msg.value;\n    }\n\n    function withdraw() public {\n        address payable msgSender = payable(msg.sender);\n        require(canWithdraw(msgSender),\"You can't withdraw.\");\n        require(msgSender.send(ParticipentBalances[msgSender]), \"Could not sent\");\n        ParticipentBalances[msgSender] = 0;\n    }\n    \n    function canWithdraw(address _addr) public view returns(bool){\n        if(ParticipentBalances[_addr] > 0)\n            return true;\n        return false;\n    }\n\n    function getContractBalance() public view returns(uint){\n        return address(this).balance;\n    }\n\n    function getAccountBalance(address _bidder) public view returns(uint){\n        return address(_bidder).balance;\n    }\n\n    function isTheHighestBidder()public view returns(bool){\n        if(msg.sender == Winner){\n            return true;\n        }\n        return false;\n    }\n\n\n receive() external payable {}\n}",
  "sourcePath": "/mnt/d/ /Blockchain/Blockchain_Set_6_2650_TSOUKAS/contracts/Auction.sol",
  "compiler": {
    "name": "solc",
    "version": "0.8.3+commit.8d00100c.Emscripten.clang"
  },
  "schemaVersion": "3.4.1",
  "updatedAt": "2021-05-22T18:11:33.076Z",
  "networkType": "ethereum",
  "devdoc": {
    "kind": "dev",
    "methods": {},
    "version": 1
  },
  "userdoc": {
    "kind": "user",
    "methods": {
      "bid()": {
        "notice": "Bid on the auction with the value sent together with this transaction. The value will only be refunded if the auction is not won."
      }
    },
    "version": 1
  }
}